{
  "contractName": "PayrollManager",
  "abi": [
    {
      "constant": true,
      "inputs": [],
      "name": "totalEmployees",
      "outputs": [
        {
          "name": "",
          "type": "uint256"
        }
      ],
      "payable": false,
      "stateMutability": "view",
      "type": "function"
    },
    {
      "constant": true,
      "inputs": [],
      "name": "oracle",
      "outputs": [
        {
          "name": "",
          "type": "address"
        }
      ],
      "payable": false,
      "stateMutability": "view",
      "type": "function"
    },
    {
      "constant": true,
      "inputs": [],
      "name": "owner",
      "outputs": [
        {
          "name": "",
          "type": "address"
        }
      ],
      "payable": false,
      "stateMutability": "view",
      "type": "function"
    },
    {
      "constant": true,
      "inputs": [],
      "name": "live",
      "outputs": [
        {
          "name": "",
          "type": "bool"
        }
      ],
      "payable": false,
      "stateMutability": "view",
      "type": "function"
    },
    {
      "constant": true,
      "inputs": [],
      "name": "eurToken",
      "outputs": [
        {
          "name": "",
          "type": "address"
        }
      ],
      "payable": false,
      "stateMutability": "view",
      "type": "function"
    },
    {
      "constant": true,
      "inputs": [],
      "name": "MONTH",
      "outputs": [
        {
          "name": "",
          "type": "uint256"
        }
      ],
      "payable": false,
      "stateMutability": "view",
      "type": "function"
    },
    {
      "constant": false,
      "inputs": [
        {
          "name": "newOwner",
          "type": "address"
        }
      ],
      "name": "transferOwnership",
      "outputs": [],
      "payable": false,
      "stateMutability": "nonpayable",
      "type": "function"
    },
    {
      "inputs": [
        {
          "name": "_eurToken",
          "type": "address"
        },
        {
          "name": "_oracle",
          "type": "address"
        }
      ],
      "payable": false,
      "stateMutability": "nonpayable",
      "type": "constructor"
    },
    {
      "anonymous": false,
      "inputs": [
        {
          "indexed": false,
          "name": "accountAddress",
          "type": "address"
        },
        {
          "indexed": false,
          "name": "employeeId",
          "type": "uint256"
        },
        {
          "indexed": false,
          "name": "initialYearlyEURSalary",
          "type": "uint256"
        }
      ],
      "name": "LogEmployeeAdded",
      "type": "event"
    },
    {
      "anonymous": false,
      "inputs": [
        {
          "indexed": true,
          "name": "employeeId",
          "type": "uint256"
        },
        {
          "indexed": false,
          "name": "yearlyEURSalary",
          "type": "uint256"
        }
      ],
      "name": "LogEmployeeSalaryChanged",
      "type": "event"
    },
    {
      "anonymous": false,
      "inputs": [
        {
          "indexed": false,
          "name": "employeeId",
          "type": "uint256"
        }
      ],
      "name": "LogEmployeeRemoved",
      "type": "event"
    },
    {
      "anonymous": false,
      "inputs": [
        {
          "indexed": false,
          "name": "amount",
          "type": "uint256"
        }
      ],
      "name": "LogFundsAdded",
      "type": "event"
    },
    {
      "anonymous": false,
      "inputs": [
        {
          "indexed": true,
          "name": "employeeId",
          "type": "uint256"
        },
        {
          "indexed": false,
          "name": "tokens",
          "type": "address[]"
        },
        {
          "indexed": false,
          "name": "distribution",
          "type": "uint256[]"
        },
        {
          "indexed": false,
          "name": "timestamp",
          "type": "uint256"
        }
      ],
      "name": "LogSalaryAllocationChanged",
      "type": "event"
    },
    {
      "anonymous": false,
      "inputs": [
        {
          "indexed": true,
          "name": "employeeId",
          "type": "uint256"
        },
        {
          "indexed": false,
          "name": "account",
          "type": "address"
        }
      ],
      "name": "LogAccountChanged",
      "type": "event"
    },
    {
      "anonymous": false,
      "inputs": [
        {
          "indexed": true,
          "name": "employeeId",
          "type": "uint256"
        },
        {
          "indexed": false,
          "name": "timestamp",
          "type": "uint256"
        }
      ],
      "name": "LogSalaryWithdrawal",
      "type": "event"
    },
    {
      "anonymous": false,
      "inputs": [
        {
          "indexed": true,
          "name": "previousOwner",
          "type": "address"
        },
        {
          "indexed": true,
          "name": "newOwner",
          "type": "address"
        }
      ],
      "name": "OwnershipTransferred",
      "type": "event"
    },
    {
      "constant": false,
      "inputs": [],
      "name": "addFunds",
      "outputs": [],
      "payable": true,
      "stateMutability": "payable",
      "type": "function"
    },
    {
      "constant": false,
      "inputs": [
        {
          "name": "account",
          "type": "address"
        },
        {
          "name": "allowedTokens",
          "type": "address[]"
        },
        {
          "name": "initialYearlyEURSalary",
          "type": "uint256"
        }
      ],
      "name": "addEmployee",
      "outputs": [],
      "payable": false,
      "stateMutability": "nonpayable",
      "type": "function"
    },
    {
      "constant": false,
      "inputs": [
        {
          "name": "employeeId",
          "type": "uint256"
        },
        {
          "name": "yearlyEURSalary",
          "type": "uint256"
        }
      ],
      "name": "setEmployeeSalary",
      "outputs": [],
      "payable": false,
      "stateMutability": "nonpayable",
      "type": "function"
    },
    {
      "constant": false,
      "inputs": [
        {
          "name": "employeeId",
          "type": "uint256"
        }
      ],
      "name": "removeEmployee",
      "outputs": [],
      "payable": false,
      "stateMutability": "nonpayable",
      "type": "function"
    },
    {
      "constant": true,
      "inputs": [],
      "name": "getEmployeeCount",
      "outputs": [
        {
          "name": "activeOwners",
          "type": "uint256"
        }
      ],
      "payable": false,
      "stateMutability": "view",
      "type": "function"
    },
    {
      "constant": true,
      "inputs": [
        {
          "name": "employeeId",
          "type": "uint256"
        }
      ],
      "name": "getEmployee",
      "outputs": [
        {
          "name": "account",
          "type": "address"
        },
        {
          "name": "yearlyEURSalary",
          "type": "uint256"
        },
        {
          "name": "allowedTokens",
          "type": "address[]"
        },
        {
          "name": "paydayTimelock",
          "type": "uint256"
        },
        {
          "name": "allocationTimelock",
          "type": "uint256"
        },
        {
          "name": "tokens",
          "type": "address[]"
        },
        {
          "name": "distribution",
          "type": "uint256[]"
        }
      ],
      "payable": false,
      "stateMutability": "view",
      "type": "function"
    },
    {
      "constant": true,
      "inputs": [],
      "name": "calculatePayrollBurnrate",
      "outputs": [
        {
          "name": "burnRate",
          "type": "uint256"
        }
      ],
      "payable": false,
      "stateMutability": "view",
      "type": "function"
    },
    {
      "constant": false,
      "inputs": [],
      "name": "escapeHatch",
      "outputs": [],
      "payable": false,
      "stateMutability": "nonpayable",
      "type": "function"
    },
    {
      "constant": false,
      "inputs": [
        {
          "name": "account",
          "type": "address"
        }
      ],
      "name": "changeAccount",
      "outputs": [],
      "payable": false,
      "stateMutability": "nonpayable",
      "type": "function"
    },
    {
      "constant": false,
      "inputs": [
        {
          "name": "tokens",
          "type": "address[]"
        },
        {
          "name": "distribution",
          "type": "uint256[]"
        }
      ],
      "name": "determineAllocation",
      "outputs": [],
      "payable": false,
      "stateMutability": "nonpayable",
      "type": "function"
    },
    {
      "constant": false,
      "inputs": [],
      "name": "payday",
      "outputs": [],
      "payable": false,
      "stateMutability": "nonpayable",
      "type": "function"
    },
    {
      "constant": false,
      "inputs": [
        {
          "name": "token",
          "type": "address"
        },
        {
          "name": "EURExchangeRate",
          "type": "uint256"
        }
      ],
      "name": "setExchangeRate",
      "outputs": [],
      "payable": false,
      "stateMutability": "nonpayable",
      "type": "function"
    },
    {
      "constant": true,
      "inputs": [
        {
          "name": "token",
          "type": "address"
        }
      ],
      "name": "getTokenRate",
      "outputs": [
        {
          "name": "rate",
          "type": "uint256"
        }
      ],
      "payable": false,
      "stateMutability": "view",
      "type": "function"
    }
  ],
  "bytecode": "0x608060405234801561001057600080fd5b506040516040806134e58339810180604052810190808051906020019092919080519060200190929190505050336000806101000a81548173ffffffffffffffffffffffffffffffffffffffff021916908373ffffffffffffffffffffffffffffffffffffffff16021790555081600560006101000a81548173ffffffffffffffffffffffffffffffffffffffff021916908373ffffffffffffffffffffffffffffffffffffffff16021790555080600660006101000a81548173ffffffffffffffffffffffffffffffffffffffff021916908373ffffffffffffffffffffffffffffffffffffffff1602179055506001600660146101000a81548160ff02191690831515021790555050506133ba8061012b6000396000f300608060405260043610610112576000357c0100000000000000000000000000000000000000000000000000000000900463ffffffff1680630a0c75aa146101175780631554611f1461014e57806321ed0f64146101655780632560baeb1461019257806352b9b973146101bd57806354dea00a146101e85780636881385b1461023f57806368c84260146102565780637dc0d1d0146102bb5780638da5cb5b14610312578063957aa58c14610369578063a26759cb14610398578063aa049691146103a2578063bca9a5c5146103e5578063bd5c54201461053f578063c2a63e3b1461058c578063c69f55e0146105b7578063d5999a5c1461060e578063f2fde38b14610639578063fe2fdf0b1461067c575b600080fd5b34801561012357600080fd5b5061014c60048036038101908080359060200190929190803590602001909291905050506106cf565b005b34801561015a57600080fd5b50610163610925565b005b34801561017157600080fd5b5061019060048036038101908080359060200190929190505050610aa0565b005b34801561019e57600080fd5b506101a7610df1565b6040518082815260200191505060405180910390f35b3480156101c957600080fd5b506101d2610ee5565b6040518082815260200191505060405180910390f35b3480156101f457600080fd5b50610229600480360381019080803573ffffffffffffffffffffffffffffffffffffffff169060200190929190505050610eeb565b6040518082815260200191505060405180910390f35b34801561024b57600080fd5b50610254610f34565b005b34801561026257600080fd5b506102b9600480360381019080803573ffffffffffffffffffffffffffffffffffffffff16906020019092919080359060200190820180359060200191909192939192939080359060200190929190505050611665565b005b3480156102c757600080fd5b506102d0611b89565b604051808273ffffffffffffffffffffffffffffffffffffffff1673ffffffffffffffffffffffffffffffffffffffff16815260200191505060405180910390f35b34801561031e57600080fd5b50610327611baf565b604051808273ffffffffffffffffffffffffffffffffffffffff1673ffffffffffffffffffffffffffffffffffffffff16815260200191505060405180910390f35b34801561037557600080fd5b5061037e611bd4565b604051808215151515815260200191505060405180910390f35b6103a0611be7565b005b3480156103ae57600080fd5b506103e3600480360381019080803573ffffffffffffffffffffffffffffffffffffffff169060200190929190505050611cff565b005b3480156103f157600080fd5b5061041060048036038101908080359060200190929190505050612175565b604051808873ffffffffffffffffffffffffffffffffffffffff1673ffffffffffffffffffffffffffffffffffffffff168152602001878152602001806020018681526020018581526020018060200180602001848103845289818151815260200191508051906020019060200280838360005b8381101561049f578082015181840152602081019050610484565b50505050905001848103835286818151815260200191508051906020019060200280838360005b838110156104e15780820151818401526020810190506104c6565b50505050905001848103825285818151815260200191508051906020019060200280838360005b83811015610523578082015181840152602081019050610508565b505050509050019a505050505050505050505060405180910390f35b34801561054b57600080fd5b5061058a600480360381019080803573ffffffffffffffffffffffffffffffffffffffff1690602001909291908035906020019092919050505061256e565b005b34801561059857600080fd5b506105a16126ff565b6040518082815260200191505060405180910390f35b3480156105c357600080fd5b506105cc6127b0565b604051808273ffffffffffffffffffffffffffffffffffffffff1673ffffffffffffffffffffffffffffffffffffffff16815260200191505060405180910390f35b34801561061a57600080fd5b506106236127d6565b6040518082815260200191505060405180910390f35b34801561064557600080fd5b5061067a600480360381019080803573ffffffffffffffffffffffffffffffffffffffff1690602001909291905050506127dd565b005b34801561068857600080fd5b506106cd600480360381019080803590602001908201803590602001919091929391929390803590602001908201803590602001919091929391929390505050612932565b005b6000809054906101000a900473ffffffffffffffffffffffffffffffffffffffff1673ffffffffffffffffffffffffffffffffffffffff163373ffffffffffffffffffffffffffffffffffffffff1614151561072a57600080fd5b600660149054906101000a900460ff1615156107ae576040517f08c379a00000000000000000000000000000000000000000000000000000000081526004018080602001828103825260148152602001807f54686520636f6e7472616374206973206465616400000000000000000000000081525060200191505060405180910390fd5b8180600454101580156107c15750600081115b1515610835576040517f08c379a000000000000000000000000000000000000000000000000000000000815260040180806020018281038252601b8152602001807f54686520656d706c6f79656520646f65736e277420657869737473000000000081525060200191505060405180910390fd5b6001600082815260200190815260200160002060030160009054906101000a900460ff1615156108cd576040517f08c379a00000000000000000000000000000000000000000000000000000000081526004018080602001828103825260188152602001807f54686520656d706c6f79656520697320696e616374697665000000000000000081525060200191505060405180910390fd5b816001600085815260200190815260200160002060010181905550827f82380a33679f3aadc9a19e92e815c381d4113fc3a6dc97bc1891c372c9fbb97b836040518082815260200191505060405180910390a2505050565b6000809054906101000a900473ffffffffffffffffffffffffffffffffffffffff1673ffffffffffffffffffffffffffffffffffffffff163373ffffffffffffffffffffffffffffffffffffffff1614151561098057600080fd5b600660149054906101000a900460ff161515610a04576040517f08c379a00000000000000000000000000000000000000000000000000000000081526004018080602001828103825260148152602001807f54686520636f6e7472616374206973206465616400000000000000000000000081525060200191505060405180910390fd5b6000600660146101000a81548160ff0219169083151502179055506000809054906101000a900473ffffffffffffffffffffffffffffffffffffffff1673ffffffffffffffffffffffffffffffffffffffff166108fc3073ffffffffffffffffffffffffffffffffffffffff16319081150290604051600060405180830381858888f19350505050158015610a9d573d6000803e3d6000fd5b50565b60008060009054906101000a900473ffffffffffffffffffffffffffffffffffffffff1673ffffffffffffffffffffffffffffffffffffffff163373ffffffffffffffffffffffffffffffffffffffff16141515610afd57600080fd5b600660149054906101000a900460ff161515610b81576040517f08c379a00000000000000000000000000000000000000000000000000000000081526004018080602001828103825260148152602001807f54686520636f6e7472616374206973206465616400000000000000000000000081525060200191505060405180910390fd5b818060045410158015610b945750600081115b1515610c08576040517f08c379a000000000000000000000000000000000000000000000000000000000815260040180806020018281038252601b8152602001807f54686520656d706c6f79656520646f65736e277420657869737473000000000081525060200191505060405180910390fd5b6001600082815260200190815260200160002060030160009054906101000a900460ff161515610ca0576040517f08c379a00000000000000000000000000000000000000000000000000000000081526004018080602001828103825260188152602001807f54686520656d706c6f79656520697320696e616374697665000000000000000081525060200191505060405180910390fd5b6001600084815260200190815260200160002060000160009054906101000a900473ffffffffffffffffffffffffffffffffffffffff169150600260008373ffffffffffffffffffffffffffffffffffffffff1673ffffffffffffffffffffffffffffffffffffffff1681526020019081526020016000206000905560016000848152602001908152602001600020600080820160006101000a81549073ffffffffffffffffffffffffffffffffffffffff02191690556001820160009055600282016000610d6f91906130c2565b6003820160006101000a81549060ff021916905560048201600090556005820160009055600682016000610da391906130c2565b600782016000610db391906130e3565b50507fe77ee6207d40c01255edced28d37ab1fe62b9abf3776a802acefcbbefc920495836040518082815260200191505060405180910390a1505050565b6000806000809054906101000a900473ffffffffffffffffffffffffffffffffffffffff1673ffffffffffffffffffffffffffffffffffffffff163373ffffffffffffffffffffffffffffffffffffffff16141515610e4f57600080fd5b600190505b60045481111515610ec1576001600082815260200190815260200160002060030160009054906101000a900460ff1615610eb457610eb1600160008381526020019081526020016000206001015483612ef690919063ffffffff16565b91505b8080600101915050610e54565b6000821115610ee157610ede600c83612f1290919063ffffffff16565b91505b5090565b60045481565b6000600360008373ffffffffffffffffffffffffffffffffffffffff1673ffffffffffffffffffffffffffffffffffffffff168152602001908152602001600020549050919050565b600080600080600080600080610f4933612f28565b1515610fbd576040517f08c379a000000000000000000000000000000000000000000000000000000000815260040180806020018281038252601a8152602001807f54686520757365722069736e277420616e20656d706c6f79656500000000000081525060200191505060405180910390fd5b60016000600260003373ffffffffffffffffffffffffffffffffffffffff1673ffffffffffffffffffffffffffffffffffffffff1681526020019081526020016000205481526020019081526020016000209750600061102a896004015442612f9490919063ffffffff16565b101515156110c6576040517f08c379a000000000000000000000000000000000000000000000000000000000815260040180806020018281038252602a8152602001807f54686520656d706c6f7965652069732074696d65206c6f636b656420666f722081526020017f7769746864726177616c0000000000000000000000000000000000000000000081525060400191505060405180910390fd5b6110dc62278d0042612ef690919063ffffffff16565b8860040181905550600660149054906101000a900460ff1615156111185760008860030160006101000a81548160ff0219169083151502179055505b611130600c8960010154612f1290919063ffffffff16565b9650600094505b8760060180549050851015611491576000886007018681548110151561115957fe5b906000526020600020015414151561148457876006018581548110151561117c57fe5b9060005260206000200160009054906101000a900473ffffffffffffffffffffffffffffffffffffffff1693506000600360008673ffffffffffffffffffffffffffffffffffffffff1673ffffffffffffffffffffffffffffffffffffffff1681526020019081526020016000205414151515611261576040517f08c379a00000000000000000000000000000000000000000000000000000000081526004018080602001828103825260128152602001807f4d697373696e6720746f6b656e2072617465000000000000000000000000000081525060200191505060405180910390fd5b876007018581548110151561127257fe5b906000526020600020015492508391508173ffffffffffffffffffffffffffffffffffffffff1663a9059cbb33611388868b8773ffffffffffffffffffffffffffffffffffffffff1663313ce5676040518163ffffffff167c0100000000000000000000000000000000000000000000000000000000028152600401602060405180830381600087803b15801561130857600080fd5b505af115801561131c573d6000803e3d6000fd5b505050506040513d602081101561133257600080fd5b8101908080519060200190929190505050600360008c73ffffffffffffffffffffffffffffffffffffffff1673ffffffffffffffffffffffffffffffffffffffff16815260200190815260200160002054612fad565b6040518363ffffffff167c0100000000000000000000000000000000000000000000000000000000028152600401808373ffffffffffffffffffffffffffffffffffffffff1673ffffffffffffffffffffffffffffffffffffffff16815260200182815260200192505050602060405180830381600087803b15801561140d57600080fd5b505af1158015611421573d6000803e3d6000fd5b505050506040513d602081101561143757600080fd5b8101908080519060200190929190505050151561145357600080fd5b611481886007018681548110151561146757fe5b906000526020600020015487612ef690919063ffffffff16565b95505b8480600101955050611137565b6127108610156115e457600560009054906101000a900473ffffffffffffffffffffffffffffffffffffffff1690508073ffffffffffffffffffffffffffffffffffffffff1663a9059cbb3361151861271061150a6114fb8c612710612f9490919063ffffffff16565b8d61300c90919063ffffffff16565b612f1290919063ffffffff16565b6040518363ffffffff167c0100000000000000000000000000000000000000000000000000000000028152600401808373ffffffffffffffffffffffffffffffffffffffff1673ffffffffffffffffffffffffffffffffffffffff16815260200182815260200192505050602060405180830381600087803b15801561159d57600080fd5b505af11580156115b1573d6000803e3d6000fd5b505050506040513d60208110156115c757600080fd5b810190808051906020019092919050505015156115e357600080fd5b5b600260003373ffffffffffffffffffffffffffffffffffffffff1673ffffffffffffffffffffffffffffffffffffffff168152602001908152602001600020547fb482aef088b19d8af8198f20ba7704993693cf29f3ba64ede751b71a001613d0426040518082815260200191505060405180910390a25050505050505050565b61166d613104565b6000809054906101000a900473ffffffffffffffffffffffffffffffffffffffff1673ffffffffffffffffffffffffffffffffffffffff163373ffffffffffffffffffffffffffffffffffffffff161415156116c857600080fd5b600660149054906101000a900460ff16151561174c576040517f08c379a00000000000000000000000000000000000000000000000000000000081526004018080602001828103825260148152602001807f54686520636f6e7472616374206973206465616400000000000000000000000081525060200191505060405180910390fd5b600073ffffffffffffffffffffffffffffffffffffffff168573ffffffffffffffffffffffffffffffffffffffff1614151515611817576040517f08c379a00000000000000000000000000000000000000000000000000000000081526004018080602001828103825260218152602001807f546865206163636f756e7420697320616e20696e76616c69642061646472657381526020017f730000000000000000000000000000000000000000000000000000000000000081525060400191505060405180910390fd5b61182085612f28565b1515156118bb576040517f08c379a00000000000000000000000000000000000000000000000000000000081526004018080602001828103825260228152602001807f546865206163636f756e7420697320616c726561647920616e20656d706c6f7981526020017f656500000000000000000000000000000000000000000000000000000000000081525060400191505060405180910390fd5b610100604051908101604052808673ffffffffffffffffffffffffffffffffffffffff168152602001838152602001858580806020026020016040519081016040528093929190818152602001838360200280828437820191505050505050815260200160011515815260200161193e62278d0042612ef690919063ffffffff16565b815260200160008152602001600060405190808252806020026020018201604052801561197a5781602001602082028038833980820191505090505b50815260200160006040519080825280602002602001820160405280156119b05781602001602082028038833980820191505090505b5081525090506119cc6001600454612ef690919063ffffffff16565b6004819055508060016000600454815260200190815260200160002060008201518160000160006101000a81548173ffffffffffffffffffffffffffffffffffffffff021916908373ffffffffffffffffffffffffffffffffffffffff160217905550602082015181600101556040820151816002019080519060200190611a55929190613162565b5060608201518160030160006101000a81548160ff0219169083151502179055506080820151816004015560a0820151816005015560c0820151816006019080519060200190611aa6929190613162565b5060e0820151816007019080519060200190611ac39291906131ec565b50905050600454600260008773ffffffffffffffffffffffffffffffffffffffff1673ffffffffffffffffffffffffffffffffffffffff168152602001908152602001600020819055507f2ab1ae937c7556d5ab6340f16f0bb89a613d31de95f55b05848c80fc91584de98560045484604051808473ffffffffffffffffffffffffffffffffffffffff1673ffffffffffffffffffffffffffffffffffffffff168152602001838152602001828152602001935050505060405180910390a15050505050565b600660009054906101000a900473ffffffffffffffffffffffffffffffffffffffff1681565b6000809054906101000a900473ffffffffffffffffffffffffffffffffffffffff1681565b600660149054906101000a900460ff1681565b6000809054906101000a900473ffffffffffffffffffffffffffffffffffffffff1673ffffffffffffffffffffffffffffffffffffffff163373ffffffffffffffffffffffffffffffffffffffff16141515611c4257600080fd5b600660149054906101000a900460ff161515611cc6576040517f08c379a00000000000000000000000000000000000000000000000000000000081526004018080602001828103825260148152602001807f54686520636f6e7472616374206973206465616400000000000000000000000081525060200191505060405180910390fd5b7f27cbcbe4215aebc644e9b9d59967bef17dede569fa93c7bb0010564da04f4f28346040518082815260200191505060405180910390a1565b6000611d0a33612f28565b1515611d7e576040517f08c379a000000000000000000000000000000000000000000000000000000000815260040180806020018281038252601a8152602001807f54686520757365722069736e277420616e20656d706c6f79656500000000000081525060200191505060405180910390fd5b600660149054906101000a900460ff161515611e02576040517f08c379a00000000000000000000000000000000000000000000000000000000081526004018080602001828103825260148152602001807f54686520636f6e7472616374206973206465616400000000000000000000000081525060200191505060405180910390fd5b600073ffffffffffffffffffffffffffffffffffffffff168273ffffffffffffffffffffffffffffffffffffffff1614151515611ecd576040517f08c379a00000000000000000000000000000000000000000000000000000000081526004018080602001828103825260218152602001807f546865206163636f756e7420697320616e20696e76616c69642061646472657381526020017f730000000000000000000000000000000000000000000000000000000000000081525060400191505060405180910390fd5b611ed682612f28565b151515611f71576040517f08c379a00000000000000000000000000000000000000000000000000000000081526004018080602001828103825260228152602001807f546865206163636f756e7420697320616c726561647920616e20656d706c6f7981526020017f656500000000000000000000000000000000000000000000000000000000000081525060400191505060405180910390fd5b60016000600260003373ffffffffffffffffffffffffffffffffffffffff1673ffffffffffffffffffffffffffffffffffffffff1681526020019081526020016000205481526020019081526020016000209050818160000160006101000a81548173ffffffffffffffffffffffffffffffffffffffff021916908373ffffffffffffffffffffffffffffffffffffffff160217905550600260003373ffffffffffffffffffffffffffffffffffffffff1673ffffffffffffffffffffffffffffffffffffffff16815260200190815260200160002054600260008473ffffffffffffffffffffffffffffffffffffffff1673ffffffffffffffffffffffffffffffffffffffff16815260200190815260200160002081905550600260003373ffffffffffffffffffffffffffffffffffffffff1673ffffffffffffffffffffffffffffffffffffffff16815260200190815260200160002060009055600260008373ffffffffffffffffffffffffffffffffffffffff1673ffffffffffffffffffffffffffffffffffffffff168152602001908152602001600020547f4e0bbff19be875aabc304c506f200e2d6582dda4e5a6a4705a83a8aa1378914283604051808273ffffffffffffffffffffffffffffffffffffffff1673ffffffffffffffffffffffffffffffffffffffff16815260200191505060405180910390a25050565b6000806060600080606080612188613104565b6000809054906101000a900473ffffffffffffffffffffffffffffffffffffffff1673ffffffffffffffffffffffffffffffffffffffff163373ffffffffffffffffffffffffffffffffffffffff161415156121e357600080fd5b8880600454101580156121f65750600081115b151561226a576040517f08c379a000000000000000000000000000000000000000000000000000000000815260040180806020018281038252601b8152602001807f54686520656d706c6f79656520646f65736e277420657869737473000000000081525060200191505060405180910390fd5b6001600082815260200190815260200160002060030160009054906101000a900460ff161515612302576040517f08c379a00000000000000000000000000000000000000000000000000000000081526004018080602001828103825260188152602001807f54686520656d706c6f79656520697320696e616374697665000000000000000081525060200191505060405180910390fd5b600160008b815260200190815260200160002061010060405190810160405290816000820160009054906101000a900473ffffffffffffffffffffffffffffffffffffffff1673ffffffffffffffffffffffffffffffffffffffff1673ffffffffffffffffffffffffffffffffffffffff168152602001600182015481526020016002820180548060200260200160405190810160405280929190818152602001828054801561240757602002820191906000526020600020905b8160009054906101000a900473ffffffffffffffffffffffffffffffffffffffff1673ffffffffffffffffffffffffffffffffffffffff16815260200190600101908083116123bd575b505050505081526020016003820160009054906101000a900460ff161515151581526020016004820154815260200160058201548152602001600682018054806020026020016040519081016040528092919081815260200182805480156124c457602002820191906000526020600020905b8160009054906101000a900473ffffffffffffffffffffffffffffffffffffffff1673ffffffffffffffffffffffffffffffffffffffff168152602001906001019080831161247a575b505050505081526020016007820180548060200260200160405190810160405280929190818152602001828054801561251c57602002820191906000526020600020905b815481526020019060010190808311612508575b505050505081525050915081600001518260200151836040015184608001518560a001518660c001518760e0015184945081915080905098509850985098509850985098505050919395979092949650565b600660149054906101000a900460ff1615156125f2576040517f08c379a00000000000000000000000000000000000000000000000000000000081526004018080602001828103825260148152602001807f54686520636f6e7472616374206973206465616400000000000000000000000081525060200191505060405180910390fd5b600660009054906101000a900473ffffffffffffffffffffffffffffffffffffffff1673ffffffffffffffffffffffffffffffffffffffff163373ffffffffffffffffffffffffffffffffffffffff161415156126b7576040517f08c379a000000000000000000000000000000000000000000000000000000000815260040180806020018281038252601b8152602001807f5468652077616c6c65742069736e277420746865206f7261636c65000000000081525060200191505060405180910390fd5b80600360008473ffffffffffffffffffffffffffffffffffffffff1673ffffffffffffffffffffffffffffffffffffffff168152602001908152602001600020819055505050565b6000806000809054906101000a900473ffffffffffffffffffffffffffffffffffffffff1673ffffffffffffffffffffffffffffffffffffffff163373ffffffffffffffffffffffffffffffffffffffff1614151561275d57600080fd5b600190505b600454811115156127ac576001600082815260200190815260200160002060030160009054906101000a900460ff161561279f5781806001019250505b8080600101915050612762565b5090565b600560009054906101000a900473ffffffffffffffffffffffffffffffffffffffff1681565b62278d0081565b6000809054906101000a900473ffffffffffffffffffffffffffffffffffffffff1673ffffffffffffffffffffffffffffffffffffffff163373ffffffffffffffffffffffffffffffffffffffff1614151561283857600080fd5b600073ffffffffffffffffffffffffffffffffffffffff168173ffffffffffffffffffffffffffffffffffffffff161415151561287457600080fd5b8073ffffffffffffffffffffffffffffffffffffffff166000809054906101000a900473ffffffffffffffffffffffffffffffffffffffff1673ffffffffffffffffffffffffffffffffffffffff167f8be0079c531659141344cd1fd0a4f28419497f9722a3daafe3b4186f6b6457e060405160405180910390a3806000806101000a81548173ffffffffffffffffffffffffffffffffffffffff021916908373ffffffffffffffffffffffffffffffffffffffff16021790555050565b600080600061294033612f28565b15156129b4576040517f08c379a000000000000000000000000000000000000000000000000000000000815260040180806020018281038252601a8152602001807f54686520757365722069736e277420616e20656d706c6f79656500000000000081525060200191505060405180910390fd5b600660149054906101000a900460ff161515612a38576040517f08c379a00000000000000000000000000000000000000000000000000000000081526004018080602001828103825260148152602001807f54686520636f6e7472616374206973206465616400000000000000000000000081525060200191505060405180910390fd5b60016000600260003373ffffffffffffffffffffffffffffffffffffffff1673ffffffffffffffffffffffffffffffffffffffff16815260200190815260200160002054815260200190815260200160002092506000612aa5846005015442612f9490919063ffffffff16565b10151515612b41576040517f08c379a000000000000000000000000000000000000000000000000000000000815260040180806020018281038252602b8152602001807f54686520656d706c6f7965652069732074696d65206c6f636b656420666f722081526020017f616c6c6f636174696f6e7300000000000000000000000000000000000000000081525060400191505060405180910390fd5b8484905087879050141515612be4576040517f08c379a00000000000000000000000000000000000000000000000000000000081526004018080602001828103825260358152602001807f546f6b656e206c697374206c656e67746820646f65736e2774206d617463686581526020017f7320646973747269627574696f6e206c656e677468000000000000000000000081525060400191505060405180910390fd5b600090505b86869050811015612d5a57612cb08787838181101515612c0557fe5b9050602002013573ffffffffffffffffffffffffffffffffffffffff1684600201805480602002602001604051908101604052809291908181526020018280548015612ca657602002820191906000526020600020905b8160009054906101000a900473ffffffffffffffffffffffffffffffffffffffff1673ffffffffffffffffffffffffffffffffffffffff1681526020019060010190808311612c5c575b5050505050613044565b1515612d24576040517f08c379a00000000000000000000000000000000000000000000000000000000081526004018080602001828103825260168152602001807f4120746f6b656e206973206e6f7420616c6c6f7765640000000000000000000081525060200191505060405180910390fd5b612d4b8585838181101515612d3557fe5b9050602002013583612ef690919063ffffffff16565b91508080600101915050612be9565b61271182101515612dd3576040517f08c379a000000000000000000000000000000000000000000000000000000000815260040180806020018281038252601d8152602001807f54686520646973747269627574696f6e2065786365656473203130302500000081525060200191505060405180910390fd5b8686846006019190612de6929190613239565b508484846007019190612dfa9291906132d9565b50612e24612e15600662278d0061300c90919063ffffffff16565b42612ef690919063ffffffff16565b8360050181905550600260003373ffffffffffffffffffffffffffffffffffffffff1673ffffffffffffffffffffffffffffffffffffffff168152602001908152602001600020547f9659929260ecc8463c447ae1415d60244603bf9f315d0e5b1584eae05a0611728888888842604051808060200180602001848152602001838103835288888281815260200192506020028082843782019150508381038252868682818152602001925060200280828437820191505097505050505050505060405180910390a250505050505050565b60008183019050828110151515612f0957fe5b80905092915050565b60008183811515612f1f57fe5b04905092915050565b600060016000600260008573ffffffffffffffffffffffffffffffffffffffff1673ffffffffffffffffffffffffffffffffffffffff16815260200190815260200160002054815260200190815260200160002060030160009054906101000a900460ff169050919050565b6000828211151515612fa257fe5b818303905092915050565b60008083600a0a905061300183612ff383612fe5612710612fd78c8c61300c90919063ffffffff16565b612f1290919063ffffffff16565b61300c90919063ffffffff16565b612f1290919063ffffffff16565b915050949350505050565b60008083141561301f576000905061303e565b818302905081838281151561303057fe5b0414151561303a57fe5b8090505b92915050565b600080600090505b82518110156130b6578373ffffffffffffffffffffffffffffffffffffffff16838281518110151561307a57fe5b9060200190602002015173ffffffffffffffffffffffffffffffffffffffff1614156130a957600191506130bb565b808060010191505061304c565b600091505b5092915050565b50805460008255906000526020600020908101906130e09190613326565b50565b50805460008255906000526020600020908101906131019190613326565b50565b61010060405190810160405280600073ffffffffffffffffffffffffffffffffffffffff1681526020016000815260200160608152602001600015158152602001600081526020016000815260200160608152602001606081525090565b8280548282559060005260206000209081019282156131db579160200282015b828111156131da5782518260006101000a81548173ffffffffffffffffffffffffffffffffffffffff021916908373ffffffffffffffffffffffffffffffffffffffff16021790555091602001919060010190613182565b5b5090506131e8919061334b565b5090565b828054828255906000526020600020908101928215613228579160200282015b8281111561322757825182559160200191906001019061320c565b5b5090506132359190613326565b5090565b8280548282559060005260206000209081019282156132c8579160200282015b828111156132c757823573ffffffffffffffffffffffffffffffffffffffff168260006101000a81548173ffffffffffffffffffffffffffffffffffffffff021916908373ffffffffffffffffffffffffffffffffffffffff16021790555091602001919060010190613259565b5b5090506132d5919061334b565b5090565b828054828255906000526020600020908101928215613315579160200282015b828111156133145782358255916020019190600101906132f9565b5b5090506133229190613326565b5090565b61334891905b8082111561334457600081600090555060010161332c565b5090565b90565b61338b91905b8082111561338757600081816101000a81549073ffffffffffffffffffffffffffffffffffffffff021916905550600101613351565b5090565b905600a165627a7a72305820b123b0aeac8beff3cf00ca2063f3df7f55bb89e25f139a0e90223edb5d9247820029",
  "source": "pragma solidity ^0.4.24;\r\n\r\nimport \"openzeppelin-solidity/contracts/ownership/Ownable.sol\";\r\nimport \"openzeppelin-solidity/contracts/math/SafeMath.sol\";\r\nimport \"openzeppelin-solidity/contracts/token/ERC20/StandardToken.sol\";\r\nimport \"../token/Token.sol\";\r\n\r\n/**\r\n * @title Payroll Manager \r\n * @dev Responsible for managing employees and their salaries \r\n */\r\ncontract PayrollManager is Ownable {\r\n    \r\n    /**\r\n     * Add safety checks for uint operations\r\n     */\r\n    using SafeMath for uint256;\r\n    \r\n    /**\r\n     * Storage\r\n     */\r\n    mapping(uint => Employee) private employees;\r\n    mapping(address => uint) private accounts;\r\n    mapping(address => uint256) private rates;\r\n    uint public totalEmployees;\r\n    address public eurToken;\r\n    address public oracle;\r\n    // escape hatch treatment\r\n    bool public live;\r\n\r\n    //@todo Add an Oracle to deal with dates \r\n    uint256 constant public MONTH = 2592000;\r\n    \r\n    /**\r\n     * Types   \r\n     */\r\n    struct Employee {\r\n        address account;\r\n        uint256 yearlyEURSalary;\r\n        address[] allowedTokens;\r\n        bool active;\r\n        uint256 paydayTimelock;\r\n        uint256 allocationTimelock;\r\n        address[] tokens;\r\n        uint256[] distribution;\r\n    }\r\n    \r\n    /**\r\n     * Events   \r\n     */\r\n    event LogEmployeeAdded(address accountAddress, uint employeeId, uint256 initialYearlyEURSalary);\r\n    event LogEmployeeSalaryChanged(uint indexed employeeId, uint256 yearlyEURSalary);\r\n    event LogEmployeeRemoved(uint employeeId);\r\n    event LogFundsAdded(uint amount);\r\n    event LogSalaryAllocationChanged(uint indexed employeeId, address[] tokens, uint256[] distribution, uint256 timestamp);\r\n    event LogAccountChanged(uint indexed employeeId, address account);\r\n    event LogSalaryWithdrawal(uint indexed employeeId, uint256 timestamp);\r\n    \r\n    /**\r\n     * Modifiers   \r\n     */\r\n    modifier onlyEmployee(){\r\n        require(isEmployee(msg.sender), \"The user isn't an employee\");\r\n        _;\r\n    }\r\n\r\n    modifier onlyActiveEmployee(uint employeeId){\r\n        require(totalEmployees >= employeeId && employeeId > uint(0), \"The employee doesn't exists\");\r\n        require(employees[employeeId].active, \"The employee is inactive\");\r\n        _;\r\n    } \r\n\r\n    modifier onlyLive(){\r\n        require(live, \"The contract is dead\");\r\n        _;\r\n    } \r\n\r\n    /**\r\n     * @param _eurToken Address of EUR Token\r\n     * @param _oracle   Oracle Exchange Rate address\r\n     */  \r\n    constructor(address _eurToken, address _oracle) public {\r\n        eurToken = _eurToken;\r\n        oracle = _oracle;\r\n        live = true;\r\n    }\r\n\r\n    /**\r\n     * @dev Supply funds to the contract\r\n     */ \r\n    function addFunds()\r\n        onlyOwner\r\n        onlyLive\r\n        payable\r\n        external\r\n    {   \r\n        emit LogFundsAdded(msg.value);\r\n    }\r\n\r\n    \r\n    /**\r\n     * @dev Add an employee\r\n     * @param account                   Account used for payment\r\n     * @param allowedTokens             Tokens allowed for allocating the salary\r\n     * @param initialYearlyEURSalary    Yearly EUR salary\r\n     */ \r\n    function addEmployee(address account, address[] allowedTokens, uint256 initialYearlyEURSalary)\r\n        onlyOwner\r\n        onlyLive\r\n        external\r\n    {   \r\n        require(account != address(0), \"The account is an invalid address\");\r\n        require(!isEmployee(account), \"The account is already an employee\");\r\n        Employee memory employee = Employee({\r\n            account: account,\r\n            yearlyEURSalary: initialYearlyEURSalary,\r\n            allowedTokens: allowedTokens,\r\n            active: true,\r\n            paydayTimelock: now.add(MONTH),\r\n            allocationTimelock: 0,\r\n            tokens : new address[](0),\r\n            distribution: new uint256[](0)\r\n        });\r\n        totalEmployees = totalEmployees.add(1);\r\n        employees[totalEmployees] = employee;\r\n        accounts[account] = totalEmployees;\r\n        emit LogEmployeeAdded(account, totalEmployees, initialYearlyEURSalary);\r\n    }\r\n\r\n    /**\r\n     * @dev Update employee's yearly EUR Salary\r\n     * @param employeeId        Employee identifier/index\r\n     * @param yearlyEURSalary   Yearly EUR salary\r\n     */ \r\n    function setEmployeeSalary(uint employeeId, uint256 yearlyEURSalary)\r\n        onlyOwner\r\n        onlyLive\r\n        onlyActiveEmployee(employeeId)\r\n        external\r\n    {\r\n        employees[employeeId].yearlyEURSalary = yearlyEURSalary;\r\n        emit LogEmployeeSalaryChanged(employeeId, yearlyEURSalary);\r\n    }\r\n\r\n    /**\r\n     * @dev Remove an active employee\r\n     * @param employeeId  Employee identifier/index \r\n     */ \r\n    function removeEmployee(uint employeeId)\r\n        onlyOwner\r\n        onlyLive\r\n        onlyActiveEmployee(employeeId)\r\n        external\r\n    {   \r\n        address account = employees[employeeId].account;\r\n        delete accounts[account];\r\n        delete employees[employeeId];\r\n        emit LogEmployeeRemoved(employeeId);\r\n    }\r\n\r\n    /**\r\n     * @dev Retrieves the number of active employees\r\n     * @return Number of active employees\r\n     */ \r\n    function getEmployeeCount() \r\n        onlyOwner\r\n        view\r\n        public  \r\n        returns (uint activeOwners)\r\n    {   \r\n\r\n        for(uint index = 1; index <= totalEmployees; index++){\r\n            if(employees[index].active){\r\n                activeOwners++;\r\n            }\r\n        }\r\n    }\r\n\r\n    /**\r\n     * @dev Retrieves employee's infos\r\n     * @param employeeId  Employee identifier/index \r\n     */ \r\n    function getEmployee(uint256 employeeId) \r\n        onlyOwner\r\n        onlyActiveEmployee(employeeId)\r\n        view \r\n        public\r\n        returns (address account, uint256 yearlyEURSalary, address[] allowedTokens, uint256 paydayTimelock, uint256 allocationTimelock, address[] tokens, uint256[] distribution)\r\n    {\r\n        Employee memory employee = employees[employeeId];\r\n        return (employee.account, employee.yearlyEURSalary, employee.allowedTokens, employee.paydayTimelock, employee.allocationTimelock, employee.tokens, employee.distribution);\r\n    } \r\n\r\n    /**\r\n     * @dev Calculates Monthly EUR amount spent in salaries\r\n     * @return Amount spent \r\n     */ \r\n    function calculatePayrollBurnrate() \r\n        onlyOwner\r\n        view \r\n        external\r\n        returns (uint256 burnRate) \r\n    {\r\n        for(uint index = 1; index <= totalEmployees; index++){\r\n            if(employees[index].active){\r\n                burnRate = burnRate.add(employees[index].yearlyEURSalary);\r\n            }\r\n        }\r\n        if(burnRate > 0){\r\n            burnRate = burnRate.div(12);\r\n        }\r\n    }\r\n    \r\n    /**\r\n     * @dev Transfer funds to the owner account and turn off state changes\r\n    */ \r\n    function escapeHatch() \r\n        onlyOwner\r\n        onlyLive\r\n        external\r\n    {\r\n        live = false;\r\n        /**\r\n         * Employees doesn't withdraws salary in ETHER, so, this makes sense in this context.\r\n         * In a context witch employees can receive funds in ETHER this function needs a better treatment\r\n         */\r\n        owner.transfer(address(this).balance);\r\n    }\r\n\r\n    /**\r\n     * @dev Updates employee account\r\n     * @param account New account address\r\n     */ \r\n    function changeAccount(address account)\r\n        onlyEmployee\r\n        onlyLive\r\n        external\r\n    {\r\n        require(account != address(0), \"The account is an invalid address\");\r\n        require(!isEmployee(account), \"The account is already an employee\");\r\n        Employee storage employee = employees[accounts[msg.sender]];\r\n        employee.account = account;\r\n        accounts[account] = accounts[msg.sender];\r\n        delete accounts[msg.sender];\r\n        emit LogAccountChanged(accounts[account], account);\r\n    }\r\n\r\n    /**\r\n     * @dev Allocates salary in tokens\r\n     * @param tokens          Token addresses\r\n     * @param distribution    Distribution values. Value range: (0.00%) 0 ~ 10000 (100.00%)\r\n     */ \r\n    function determineAllocation(address[] tokens, uint256[] distribution)\r\n        onlyEmployee\r\n        onlyLive\r\n        external\r\n    {\r\n        Employee storage employee = employees[accounts[msg.sender]];\r\n        require(now.sub(employee.allocationTimelock) >= 0, \"The employee is time locked for allocations\"); \r\n        require(tokens.length == distribution.length, \"Token list length doesn't matches distribution length\");\r\n        uint256 totalDistribution;\r\n        for(uint256 index = 0; index < tokens.length; index++){\r\n            require(isAllowed(tokens[index], employee.allowedTokens), \"A token is not allowed\");\r\n            totalDistribution = totalDistribution.add(distribution[index]);\r\n        }\r\n        require(totalDistribution < 10001, \"The distribution exceeds 100%\");\r\n        employee.tokens = tokens;\r\n        employee.distribution = distribution;\r\n        employee.allocationTimelock = now.add(MONTH.mul(6));\r\n        emit LogSalaryAllocationChanged(accounts[msg.sender], tokens, distribution, now);\r\n    }\r\n\r\n    /**\r\n     * @dev Withdraws employee salary\r\n     */ \r\n    function payday()\r\n        onlyEmployee\r\n        external\r\n    {\r\n        Employee storage employee = employees[accounts[msg.sender]];\r\n        require(now.sub(employee.paydayTimelock) >= 0, \"The employee is time locked for withdrawal\");\r\n        employee.paydayTimelock = now.add(MONTH);\r\n        // inactive employee if the contract is dead\r\n        if(!live) employee.active = false;\r\n        uint256 monthlySalary = employee.yearlyEURSalary.div(12); \r\n        uint256 distributed;\r\n        for(uint256 index = 0; index < employee.tokens.length; index++){\r\n            if(employee.distribution[index] != 0){\r\n                address token = employee.tokens[index];\r\n                require(rates[token] != 0, \"Missing token rate\");\r\n                uint256 distribution = employee.distribution[index];\r\n                Token _token = Token(token);\r\n                require(_token.transfer(msg.sender, calculateTokenAmount(distribution, monthlySalary, _token.decimals(), rates[token])));\r\n                distributed = distributed.add(employee.distribution[index]);\r\n            }\r\n        }\r\n        if(distributed < 10000){\r\n            StandardToken _eur = StandardToken(eurToken);\r\n            require(_eur.transfer(msg.sender, (monthlySalary.mul(uint256(10000).sub(distributed)).div(10000))));\r\n        }\r\n        emit LogSalaryWithdrawal(accounts[msg.sender], now);\r\n    }\r\n\r\n    /**\r\n     * @dev Updates token/EUR exchange rate\r\n     * @param token           Token address\r\n     * @param EURExchangeRate EUR exchange rate\r\n     */ \r\n    function setExchangeRate(address token, uint256 EURExchangeRate)\r\n        onlyLive\r\n        external\r\n    {\r\n        require(msg.sender == oracle, \"The wallet isn't the oracle\");\r\n        rates[token] = EURExchangeRate;\r\n    }\r\n\r\n    /**\r\n     * @dev Retrieves token's rate\r\n     * @param token  Token address \r\n     * @return Rate\r\n     */ \r\n    function getTokenRate(address token) \r\n        view \r\n        public\r\n        returns (uint256 rate)\r\n    {\r\n        rate = rates[token];\r\n    } \r\n\r\n    /**\r\n     * @dev Checks if an address matches an active employee\r\n     * @param account Employee account \r\n     * @return Active check\r\n     */ \r\n    function isEmployee(address account) \r\n        view \r\n        internal\r\n        returns(bool) \r\n    {\r\n        return employees[accounts[account]].active;\r\n    }\r\n\r\n    /**\r\n     * @dev Calculates monthly Token amount\r\n     * @param distribution  Percentage of salary in token \r\n     * @param monthlySalary Monthly salary in EUR\r\n     * @param tokenDecimals Token decimal places\r\n     * @param rate          Token/EUR exchange rate \r\n     * @return Token amount\r\n     */ \r\n    function calculateTokenAmount(uint256 distribution, uint256 monthlySalary, uint256 tokenDecimals, uint256 rate)\r\n        pure\r\n        internal\r\n        returns(uint256 amount)\r\n    {   \r\n        uint256 decimalsCast = 10 ** tokenDecimals;\r\n        amount = (monthlySalary.mul(distribution).div(10000)).mul(decimalsCast).div(rate);\r\n    }\r\n    \r\n    /**\r\n     * @dev Checks if a token is allowed\r\n     * @param token         Token address\r\n     * @param allowedTokens Allowed tokens\r\n     * @return allowance\r\n     */ \r\n    function isAllowed(address token, address[] allowedTokens) \r\n        pure \r\n        internal\r\n        returns(bool) \r\n    {\r\n        for(uint index = 0; index < allowedTokens.length; index++) {\r\n            if(allowedTokens[index] == token){\r\n                return true;\r\n            }\r\n        }\r\n        return false;\r\n    }\r\n\r\n}",
  "sourcePath": "C:\\workfolder\\payroll-manager\\contracts\\payroll\\PayrollManager.sol",
  "compiler": {
    "name": "solc",
    "version": "0.4.24+commit.e67f0147.Emscripten.clang"
  },
  "schemaVersion": "2.0.0",
  "updatedAt": "2018-06-07T21:25:56.413Z"
}